:1000000014C0D7C0C7C021C020C01FC0F5C01DC0CC
:100010001CC01BC01AC019C018C017C016C015C01C
:1000200014C013C012C011C010C011241FBECFE5F0
:10003000D1E0DEBFCDBF20E0A0E6B0E001C01D9260
:10004000AE36B207E1F7EFD014C1DACF80916C0081
:1000500090916D008330910509F441C034F48130F2
:10006000910559F0029731F18CC08430910509F463
:1000700043C0059709F451C084C089E288BB8091D0
:10008000650090916600883A92400CF47AC08091A5
:100090006200882309F475C0C09882E090E09093D4
:1000A0006B0080936A0010926600109265001092B7
:1000B000620067C080916500909166008C3C91055C
:1000C00054F4809160009091610080FD02C0C19A5B
:1000D00037C0C19835C0C19883E090E04AC0C1984C
:1000E000C29A8091650090916600803591050CF46C
:1000F00048C084E090E03DC0C29AC598C098C398BB
:10010000C69AC49A8091650090916600883A9240A0
:10011000C4F1C69885E090E02CC080916500909174
:1001200066008C3C910504F580916000909161001F
:1001300080FD03C088B3806502C088B38F7A88BB16
:10014000209165003091660080916000909161007F
:1001500028173907B1F0809165009091660090935F
:100160006100809360000DC088B38F7A88BB81E006
:1001700090E090936B0080936A001092660010925A
:10018000650080916A0090916B0090936D00809360
:100190006C0008951F920F920FB60F9211248F9347
:1001A00081E0809362008F910F900FBE0F901F909F
:1001B00018951F920F920FB60F9211242F933F9311
:1001C0004F935F936F937F938F939F93AF93BF935F
:1001D000EF93FF93DFDFFF91EF91BF91AF919F917D
:1001E0008F917F916F915F914F913F912F910F90E0
:1001F0000FBE0F901F9018951F920F920FB60F927F
:1002000011248F939F9380916500909166000196D1
:1002100090936600809365009F918F910F900FBE21
:100220000F901F90189581E090E090936B00809361
:100230006A0090936D0080936C0018BA10BA12BADD
:100240008FE787BB83EF81BB8BB780648BBF8BB796
:1002500080688BBF85B7836085BF85B78C6085BF9D
:1002600010BE85E083BF89B7826089BF7894EEDED7
:06027000FECFF894FFCF61
:00000001FF
