:020000040000FA
:10000000000002285B30FE000130FF00803000005D
:10001000000010210000000083160000B0007F08DF
:10002000AF005D30B1000130B200831600002F0830
:10003000B3003008B400FF30AF07031CB00334082E
:10004000330403199A2804303107B300B401B40D06
:100050003208B4073308FE003408FF008030000087
:10006000000010210000000083160000B6007F0889
:10007000B5003108FE003208FF00803000000000AB
:1000800010210000000083160000B800B4007F08B3
:10009000B300B70002303107B300B401B40D320829
:1000A000B4073308FE003408FF0080300000000071
:1000B00010210000000083160000B400BA007F0881
:1000C000B900B300831600003508B9003608BA003D
:1000D000FF30B507031CB6033A0839040319932807
:1000E0003708FE003808FF00803000000000FD20C7
:1000F0000000000083160000B900330883120313C8
:100100008400831383160000341883173908831280
:100110000313800083160000B70A0319B80AB30A54
:100120000319B40A6228063083160000B1070318C9
:10013000B20A1528000000009E28080083128501DD
:100140000830831685009F0101308316A800A9019D
:10015000AA01AB018316AC018312851DB128831659
:10016000AC0A83162C08AD002808AC002D06031934
:10017000F12883128519F128831629080030031904
:100180000130AC00A9002A08003003190130AC008E
:10019000AA002B08003003190130AC00AB00831219
:1001A00005088316AC00F830AC052908AD00AE0098
:1001B000AD00AC042A08AD0003102D0DAE00AD005B
:1001C000AC042B08AD0003102D0DAE000310AE0DD6
:1001D0002E08AD002C04831285006430FF0000302F
:1001E00031218316AC018312851DF8288316AC0AD1
:1001F00083162C08A800AA280800003A031904292D
:10020000803A03190B2900347E08840083137F1879
:100210008317000808007F088A007E088200080013
:10022000003A03191829803A03192229FF010034E2
:100230007E08840083137F1883170008FF00840A58
:1002400000080800000000000B21FD00FE0FFF0366
:10025000FF0A000000000B21FC007D08FF007C0865
:1002600008008316A1007F08A000A201A301831645
:1002700021082302031D3E292008220203185A29BF
:10028000FF308316A400A501FF3083162407A600C3
:10029000FF30A70025080318250FA7072608A4008C
:1002A0002708A50027082604031D4429A20A0319CC
:1002B000A30A372908000134003463340134BB3405
:0802C000003401340034003465
:00000001FF
