:020000040000FA
:10000000000002283830FE000130FF008030000080
:100010000000EC200000000083160000A1007F0813
:10002000A0003A30A2000130A3008316000020088F
:10003000A4002108A500FF30A007031CA103250888
:10004000240403199A2804302207A400A501A50D51
:100050002308A5072408FE002508FF0080300000C3
:100060000000EC200000000083160000A7007F08BD
:10007000A6002208FE002308FF00803000000000D8
:10008000EC200000000083160000A900A5007F08F6
:10009000A400A80002302207A400A501A50D230892
:1000A000A5072408FE002508FF008030000000009E
:1000B000EC200000000083160000A500AB007F08C4
:1000C000AA00A400831600002608AA002708AB0097
:1000D000FF30A607031CA7032B082A040319932843
:1000E0002808FE002908FF00803000000000D92009
:1000F0000000000083160000AA00240883120313E6
:100100008400831383160000251883172A0883129E
:100110000313800083160000A80A0319A90AA40A81
:100120000319A50A6228063083160000A2070318E7
:10013000A30A1528000000009E2808000830831636
:10014000850083128501043083168100831285198E
:10015000C62801088316AC008316350883162C06C2
:100160000319C128831635088316B60083162C0898
:100170008316B50035088316AC00C0302C048312FA
:1001800085006430FF0000300D21A6288316360854
:10019000831635060319A62835088316AC00C0302F
:1001A0002C0483128500831635088316B600A62812
:1001B0000800003A0319E028803A0319E7280034C0
:1001C0007E08840083137F188317000808007F08C7
:1001D0008A007E0882000800003A0319F428803A59
:1001E0000319FE28FF0100347E08840083137F1862
:1001F00083170008FF00840A0008080000000000C0
:10020000E720FD00FE0FFF03FF0A00000000E720CB
:10021000FC007D08FF007C0808008316AE007F0804
:10022000AD00AF01B00183162E083002031D1A295C
:100230002D082F0203183729FB308316B100043034
:10024000B200FF3083163107B300FF30B40032082C
:100250000318320FB4073308B1003408B200340871
:100260003304031D2129AF0A0319B00A132908001A
:10027000033400344C340134B534003401340034D8
:100280004D340134B6340034013400344E3401347A
:0E029000B7340034013400340034003400343C
:02400E00973FDA
:00000001FF
